{
  "_format": "hh-sol-artifact-1",
  "contractName": "MultiSigOperator",
  "sourceName": "contracts/custom/MultiSigOperator.sol",
  "abi": [
    {
      "inputs": [
        {
          "internalType": "address[]",
          "name": "_owners",
          "type": "address[]"
        },
        {
          "internalType": "uint256",
          "name": "_numConfirmationsRequired",
          "type": "uint256"
        },
        {
          "internalType": "uint256",
          "name": "_numConfirmationsRequiredOperator",
          "type": "uint256"
        },
        {
          "internalType": "address",
          "name": "_operator",
          "type": "address"
        },
        {
          "internalType": "contract IICManager",
          "name": "_manager",
          "type": "address"
        }
      ],
      "stateMutability": "nonpayable",
      "type": "constructor"
    },
    {
      "anonymous": false,
      "inputs": [
        {
          "indexed": true,
          "internalType": "address",
          "name": "owner",
          "type": "address"
        },
        {
          "indexed": true,
          "internalType": "address",
          "name": "newOperator",
          "type": "address"
        }
      ],
      "name": "ConfirmNewOperator",
      "type": "event"
    },
    {
      "anonymous": false,
      "inputs": [
        {
          "indexed": true,
          "internalType": "address",
          "name": "owner",
          "type": "address"
        },
        {
          "indexed": true,
          "internalType": "uint256",
          "name": "rebalanceNum",
          "type": "uint256"
        }
      ],
      "name": "ConfirmRebalance",
      "type": "event"
    },
    {
      "anonymous": false,
      "inputs": [
        {
          "indexed": true,
          "internalType": "address",
          "name": "owner",
          "type": "address"
        },
        {
          "indexed": true,
          "internalType": "uint256",
          "name": "rebalanceNum",
          "type": "uint256"
        }
      ],
      "name": "ExecuteRebalance",
      "type": "event"
    },
    {
      "anonymous": false,
      "inputs": [
        {
          "indexed": true,
          "internalType": "address",
          "name": "newOperator",
          "type": "address"
        }
      ],
      "name": "NewOperator",
      "type": "event"
    },
    {
      "anonymous": false,
      "inputs": [
        {
          "indexed": true,
          "internalType": "address",
          "name": "owner",
          "type": "address"
        },
        {
          "indexed": true,
          "internalType": "uint256",
          "name": "rebalanceNum",
          "type": "uint256"
        }
      ],
      "name": "RevokeConfirmation",
      "type": "event"
    },
    {
      "anonymous": false,
      "inputs": [
        {
          "indexed": true,
          "internalType": "address",
          "name": "newOperator",
          "type": "address"
        }
      ],
      "name": "SubmitNewOperator",
      "type": "event"
    },
    {
      "anonymous": false,
      "inputs": [
        {
          "indexed": true,
          "internalType": "uint256",
          "name": "rebalanceNum",
          "type": "uint256"
        },
        {
          "indexed": false,
          "internalType": "address[]",
          "name": "newComponents",
          "type": "address[]"
        },
        {
          "indexed": false,
          "internalType": "uint256[]",
          "name": "newComponentsTargetUnits",
          "type": "uint256[]"
        },
        {
          "indexed": false,
          "internalType": "uint256[]",
          "name": "oldComponentsTargetUnits",
          "type": "uint256[]"
        },
        {
          "indexed": false,
          "internalType": "uint256",
          "name": "positionMultiplier",
          "type": "uint256"
        }
      ],
      "name": "SubmitRebalance",
      "type": "event"
    },
    {
      "inputs": [],
      "name": "confirmNewOperator",
      "outputs": [],
      "stateMutability": "nonpayable",
      "type": "function",
      "gas": "0xa7d8c0"
    },
    {
      "inputs": [],
      "name": "confirmRebalance",
      "outputs": [],
      "stateMutability": "nonpayable",
      "type": "function",
      "gas": "0xa7d8c0"
    },
    {
      "inputs": [],
      "name": "currentRebalance",
      "outputs": [
        {
          "internalType": "uint256",
          "name": "positionMultiplier",
          "type": "uint256"
        },
        {
          "internalType": "bool",
          "name": "executed",
          "type": "bool"
        },
        {
          "internalType": "uint256",
          "name": "numConfirmations",
          "type": "uint256"
        },
        {
          "internalType": "uint256",
          "name": "rebalanceNum",
          "type": "uint256"
        }
      ],
      "stateMutability": "view",
      "type": "function",
      "gas": "0xa7d8c0"
    },
    {
      "inputs": [],
      "name": "executeNewOperator",
      "outputs": [],
      "stateMutability": "nonpayable",
      "type": "function",
      "gas": "0xa7d8c0"
    },
    {
      "inputs": [],
      "name": "executeRebalance",
      "outputs": [],
      "stateMutability": "nonpayable",
      "type": "function",
      "gas": "0xa7d8c0"
    },
    {
      "inputs": [],
      "name": "getOwners",
      "outputs": [
        {
          "internalType": "address[]",
          "name": "",
          "type": "address[]"
        }
      ],
      "stateMutability": "view",
      "type": "function",
      "gas": "0xa7d8c0"
    },
    {
      "inputs": [],
      "name": "getRebalance",
      "outputs": [
        {
          "internalType": "address[]",
          "name": "",
          "type": "address[]"
        },
        {
          "internalType": "uint256[]",
          "name": "",
          "type": "uint256[]"
        },
        {
          "internalType": "uint256[]",
          "name": "",
          "type": "uint256[]"
        },
        {
          "internalType": "uint256",
          "name": "",
          "type": "uint256"
        },
        {
          "internalType": "bool",
          "name": "",
          "type": "bool"
        },
        {
          "internalType": "uint256",
          "name": "",
          "type": "uint256"
        },
        {
          "internalType": "uint256",
          "name": "",
          "type": "uint256"
        }
      ],
      "stateMutability": "view",
      "type": "function",
      "gas": "0xa7d8c0"
    },
    {
      "inputs": [
        {
          "internalType": "address",
          "name": "",
          "type": "address"
        }
      ],
      "name": "isOwner",
      "outputs": [
        {
          "internalType": "bool",
          "name": "",
          "type": "bool"
        }
      ],
      "stateMutability": "view",
      "type": "function",
      "gas": "0xa7d8c0"
    },
    {
      "inputs": [],
      "name": "manager",
      "outputs": [
        {
          "internalType": "contract IICManager",
          "name": "",
          "type": "address"
        }
      ],
      "stateMutability": "view",
      "type": "function",
      "gas": "0xa7d8c0"
    },
    {
      "inputs": [],
      "name": "numConfirmationsRequired",
      "outputs": [
        {
          "internalType": "uint256",
          "name": "",
          "type": "uint256"
        }
      ],
      "stateMutability": "view",
      "type": "function",
      "gas": "0xa7d8c0"
    },
    {
      "inputs": [],
      "name": "numConfirmationsRequiredOperator",
      "outputs": [
        {
          "internalType": "uint256",
          "name": "",
          "type": "uint256"
        }
      ],
      "stateMutability": "view",
      "type": "function",
      "gas": "0xa7d8c0"
    },
    {
      "inputs": [],
      "name": "operator",
      "outputs": [
        {
          "internalType": "address",
          "name": "",
          "type": "address"
        }
      ],
      "stateMutability": "view",
      "type": "function",
      "gas": "0xa7d8c0"
    },
    {
      "inputs": [
        {
          "internalType": "address",
          "name": "",
          "type": "address"
        }
      ],
      "name": "operatorConfirmed",
      "outputs": [
        {
          "internalType": "bool",
          "name": "",
          "type": "bool"
        }
      ],
      "stateMutability": "view",
      "type": "function",
      "gas": "0xa7d8c0"
    },
    {
      "inputs": [],
      "name": "operatorProposal",
      "outputs": [
        {
          "internalType": "address",
          "name": "newOperator",
          "type": "address"
        },
        {
          "internalType": "uint256",
          "name": "numConfirmations",
          "type": "uint256"
        }
      ],
      "stateMutability": "view",
      "type": "function",
      "gas": "0xa7d8c0"
    },
    {
      "inputs": [
        {
          "internalType": "uint256",
          "name": "",
          "type": "uint256"
        }
      ],
      "name": "owners",
      "outputs": [
        {
          "internalType": "address",
          "name": "",
          "type": "address"
        }
      ],
      "stateMutability": "view",
      "type": "function",
      "gas": "0xa7d8c0"
    },
    {
      "inputs": [
        {
          "internalType": "address",
          "name": "",
          "type": "address"
        }
      ],
      "name": "rebalanceConfirmed",
      "outputs": [
        {
          "internalType": "bool",
          "name": "",
          "type": "bool"
        }
      ],
      "stateMutability": "view",
      "type": "function",
      "gas": "0xa7d8c0"
    },
    {
      "inputs": [],
      "name": "rebalanceNum",
      "outputs": [
        {
          "internalType": "uint256",
          "name": "",
          "type": "uint256"
        }
      ],
      "stateMutability": "view",
      "type": "function",
      "gas": "0xa7d8c0"
    },
    {
      "inputs": [],
      "name": "revokeConfirmation",
      "outputs": [],
      "stateMutability": "nonpayable",
      "type": "function",
      "gas": "0xa7d8c0"
    },
    {
      "inputs": [
        {
          "internalType": "address",
          "name": "_newOperator",
          "type": "address"
        }
      ],
      "name": "submitNewOperator",
      "outputs": [],
      "stateMutability": "nonpayable",
      "type": "function",
      "gas": "0xa7d8c0"
    },
    {
      "inputs": [
        {
          "internalType": "address[]",
          "name": "_newComponents",
          "type": "address[]"
        },
        {
          "internalType": "uint256[]",
          "name": "_newComponentsTargetUnits",
          "type": "uint256[]"
        },
        {
          "internalType": "uint256[]",
          "name": "_oldComponentsTargetUnits",
          "type": "uint256[]"
        },
        {
          "internalType": "uint256",
          "name": "_positionMultiplier",
          "type": "uint256"
        }
      ],
      "name": "submitRebalance",
      "outputs": [],
      "stateMutability": "nonpayable",
      "type": "function",
      "gas": "0xa7d8c0"
    }
  ],
  "bytecode": "0x60806040523480156200001157600080fd5b506040516200177538038062001775833981810160405260a08110156200003757600080fd5b81019080805160405193929190846401000000008211156200005857600080fd5b9083019060208201858111156200006e57600080fd5b82518660208202830111640100000000821117156200008c57600080fd5b82525081516020918201928201910280838360005b83811015620000bb578181015183820152602001620000a1565b505050509190910160409081526020830151908301516060840151608090940151875192965090945091506200012a576040805162461bcd60e51b815260206004820152600f60248201526e1bdddb995c9cc81c995c5d5a5c9959608a1b604482015290519081900360640190fd5b6000841180156200013c575084518411155b620001795760405162461bcd60e51b81526004018080602001828103825260288152602001806200174d6028913960400191505060405180910390fd5b6000831180156200018b575084518311155b620001c85760405162461bcd60e51b81526004018080602001828103825260288152602001806200174d6028913960400191505060405180910390fd5b600180546001600160a01b038085166001600160a01b031992831617909255600680549284169290911691909117905560005b8551811015620003455760008682815181106200021457fe5b6020026020010151905060006001600160a01b0316816001600160a01b0316141562000277576040805162461bcd60e51b815260206004820152600d60248201526c34b73b30b634b21037bbb732b960991b604482015290519081900360640190fd5b6001600160a01b03811660009081526002602052604090205460ff1615620002d9576040805162461bcd60e51b815260206004820152601060248201526f6f776e6572206e6f7420756e6971756560801b604482015290519081900360640190fd5b6001600160a01b03166000818152600260205260408120805460ff19166001908117909155815480820183559180527f290decd9548b62a8d60345a988386fc84ba6bc95484008f6362f93160ef3e56390910180546001600160a01b03191690921790915501620001fb565b5050506003919091556004555060006005556113e680620003676000396000f3fe608060405234801561001057600080fd5b506004361061012c5760003560e01c806367c87872116100ad578063aa3b556811610071578063aa3b556814610313578063cdddf26f14610419578063d0549b8514610421578063d8a98e7014610429578063e221a477146104315761012c565b806367c87872146102575780636afb44311461025f57806394ba91f4146102855780639bb71aef146102b3578063a0e67e2b146102bb5761012c565b80632f54bf6e116100f45780632f54bf6e146101f3578063481c6a75146102195780634b845fb214610221578063570ca735146102295780635caa5d8a146102315761012c565b8063025e7c271461013157806302bf9fd51461016a5780631852e792146101a45780631a9530ed146101ae57806329a644dc146101c8575b600080fd5b61014e6004803603602081101561014757600080fd5b5035610545565b604080516001600160a01b039092168252519081900360200190f35b6101906004803603602081101561018057600080fd5b50356001600160a01b031661056c565b604080519115158252519081900360200190f35b6101ac610581565b005b6101b66106de565b60408051918252519081900360200190f35b6101d06106e4565b604080516001600160a01b03909316835260208301919091528051918290030190f35b6101906004803603602081101561020957600080fd5b50356001600160a01b03166106f9565b61014e61070e565b6101ac61071d565b61014e610875565b6101906004803603602081101561024757600080fd5b50356001600160a01b0316610884565b6101ac610899565b6101ac6004803603602081101561027557600080fd5b50356001600160a01b03166109ad565b61028d610a7c565b604080519485529215156020850152838301919091526060830152519081900360800190f35b6101ac610a91565b6102c3610d1d565b60408051602080825283518183015283519192839290830191858101910280838360005b838110156102ff5781810151838201526020016102e7565b505050509050019250505060405180910390f35b61031b610d80565b604051808060200180602001806020018881526020018715151515815260200186815260200185815260200184810384528b818151815260200191508051906020019060200280838360005b8381101561037f578181015183820152602001610367565b5050505090500184810383528a818151815260200191508051906020019060200280838360005b838110156103be5781810151838201526020016103a6565b50505050905001848103825289818151815260200191508051906020019060200280838360005b838110156103fd5781810151838201526020016103e5565b505050509050019a505050505050505050505060405180910390f35b6101ac610ec4565b6101b6611025565b6101b661102b565b6101ac6004803603608081101561044757600080fd5b81019060208101813564010000000081111561046257600080fd5b82018360208201111561047457600080fd5b8035906020019184602083028401116401000000008311171561049657600080fd5b9193909290916020810190356401000000008111156104b457600080fd5b8201836020820111156104c657600080fd5b803590602001918460208302840111640100000000831117156104e857600080fd5b91939092909160208101903564010000000081111561050657600080fd5b82018360208201111561051857600080fd5b8035906020019184602083028401116401000000008311171561053a57600080fd5b919350915035611031565b6000818154811061055257fe5b6000918252602090912001546001600160a01b0316905081565b60076020526000908152604090205460ff1681565b3360009081526002602052604090205460ff166105d1576040805162461bcd60e51b81526020600482015260096024820152683737ba1037bbb732b960b91b604482015290519081900360640190fd5b600d5460ff1615610626576040805162461bcd60e51b815260206004820152601a6024820152791c9958985b185b98d948185b1c9958591e48195e1958dd5d195960321b604482015290519081900360640190fd5b3360009081526007602052604090205460ff161561068b576040805162461bcd60e51b815260206004820152601b60248201527f726562616c616e636520616c726561647920636f6e6669726d65640000000000604482015290519081900360640190fd5b600e8054600190810190915533600081815260076020526040808220805460ff191690941790935560055492517f63b8e73e157fe98abbd6b67c8b54e5490e2f13f95e07d7c6ee518ec1180f5bab9190a3565b60055481565b6010546011546001600160a01b039091169082565b60026020526000908152604090205460ff1681565b6006546001600160a01b031681565b3360009081526002602052604090205460ff1661076d576040805162461bcd60e51b81526020600482015260096024820152683737ba1037bbb732b960b91b604482015290519081900360640190fd5b600d5460ff16156107c2576040805162461bcd60e51b815260206004820152601a6024820152791c9958985b185b98d948185b1c9958591e48195e1958dd5d195960321b604482015290519081900360640190fd5b3360009081526007602052604090205460ff16610826576040805162461bcd60e51b815260206004820152601760248201527f726562616c616e6365206e6f7420636f6e6669726d6564000000000000000000604482015290519081900360640190fd5b600e805460001901905533600081815260076020526040808220805460ff1916905560055490519092917ff0dca620e2e81f7841d07bcc105e1704fb01475b278a9d4c236e1c62945edd5591a3565b6001546001600160a01b031681565b60086020526000908152604090205460ff1681565b3360009081526002602052604090205460ff166108e9576040805162461bcd60e51b81526020600482015260096024820152683737ba1037bbb732b960b91b604482015290519081900360640190fd5b3360009081526008602052604090205460ff161561094e576040805162461bcd60e51b815260206004820152601a60248201527f6f70657261746f7220616c726561647920636f6e6669726d6564000000000000604482015290519081900360640190fd5b60118054600190810190915533600081815260086020526040808220805460ff191690941790935560105492516001600160a01b03909316927fa74266b60a1914f293e0928caaa214e74d185d3f46e48b224a051d13420acce29190a3565b3360009081526002602052604090205460ff166109fd576040805162461bcd60e51b81526020600482015260096024820152683737ba1037bbb732b960b91b604482015290519081900360640190fd5b6040805180820182526001600160a01b03831680825260006020928301819052601080546001600160a01b0319168317905560118181553382526008909352838120805460ff1916600190811790915583540190925591517f62e8bad457277c87e0c0de047d25c331890aa5afeb4c55c1b934f7fec46946ab9190a250565b600c54600d54600e54600f5460ff9092169184565b3360009081526002602052604090205460ff16610ae1576040805162461bcd60e51b81526020600482015260096024820152683737ba1037bbb732b960b91b604482015290519081900360640190fd5b600d5460ff1615610b36576040805162461bcd60e51b815260206004820152601a6024820152791c9958985b185b98d948185b1c9958591e48195e1958dd5d195960321b604482015290519081900360640190fd5b600354600e541015610b8f576040805162461bcd60e51b815260206004820152601860248201527f63616e6e6f74206578656375746520726562616c616e63650000000000000000604482015290519081900360640190fd5b600d805460ff19166001179055600654600c54604051633476a4cd60e21b81526064810182905260806004820190815260098054608484018190526001600160a01b039095169463d1da9334949193600a93600b9392909182916024820191604481019160a49091019089908015610c3057602002820191906000526020600020905b81546001600160a01b03168152600190910190602001808311610c12575b50508481038352878181548152602001915080548015610c6f57602002820191906000526020600020905b815481526020019060010190808311610c5b575b50508481038252868181548152602001915080548015610cae57602002820191906000526020600020905b815481526020019060010190808311610c9a575b5050975050505050505050600060405180830381600087803b158015610cd357600080fd5b505af1158015610ce7573d6000803e3d6000fd5b50506005546040519092503391507f136ee07e7adeb0a1833bbe8cb48d1719ab5d9bd33cb37e29903136aefc15a82090600090a3565b60606000805480602002602001604051908101604052809291908181526020018280548015610d7557602002820191906000526020600020905b81546001600160a01b03168152600190910190602001808311610d57575b505050505090505b90565b600c54600d54600e54600f546009805460408051602080840282018101909252828152606097889788976000978897889788979196600a96600b96909560ff90911694909390928991830182828015610e0257602002820191906000526020600020905b81546001600160a01b03168152600190910190602001808311610de4575b5050505050965085805480602002602001604051908101604052809291908181526020018280548015610e5457602002820191906000526020600020905b815481526020019060010190808311610e40575b5050505050955084805480602002602001604051908101604052809291908181526020018280548015610ea657602002820191906000526020600020905b815481526020019060010190808311610e92575b50505050509450965096509650965096509650965090919293949596565b3360009081526002602052604090205460ff16610f14576040805162461bcd60e51b81526020600482015260096024820152683737ba1037bbb732b960b91b604482015290519081900360640190fd5b6004546011541015610f6d576040805162461bcd60e51b815260206004820152601b60248201527f63616e6e6f742065786563757465206e6577206f70657261746f720000000000604482015290519081900360640190fd5b601054600180546001600160a01b0319166001600160a01b0392831617908190556040519116907fda12ee837e6978172aaf54b16145ffe08414fd8710092ef033c71b8eb6ec189a90600090a26006546001546040805163ac7475ed60e01b81526001600160a01b0392831660048201529051919092169163ac7475ed91602480830192600092919082900301818387803b15801561100b57600080fd5b505af115801561101f573d6000803e3d6000fd5b50505050565b60035481565b60045481565b6001546001600160a01b0316331461107f576040805162461bcd60e51b815260206004820152600c60248201526b3737ba1037b832b930ba37b960a11b604482015290519081900360640190fd5b6040518060e001604052808888808060200260200160405190810160405280939291908181526020018383602002808284376000920191909152505050908252506040805160208881028281018201909352888252928301929091899189918291850190849080828437600092019190915250505090825250604080516020868102828101820190935286825292830192909187918791829185019084908082843760009201829052509385525050506020808301859052604083018290526060830191909152600554608090920191909152815180516009926111679284929101906112c6565b506020828101518051611180926001850192019061132b565b506040820151805161119c91600284019160209091019061132b565b506060820151816003015560808201518160040160006101000a81548160ff02191690831515021790555060a0820151816005015560c0820151816006015590505060016005600082825401925050819055506005547f6e311c51889858c53890dc390883349964c9d4e0b0a46ab2935cb845e20f77cb888888888888886040518080602001806020018060200185815260200184810384528b8b82818152602001925060200280828437600083820152601f01601f19169091018581038452898152602090810191508a908a0280828437600083820152601f01601f19169091018581038352878152602090810191508890880280828437600083820152604051601f909101601f19169092018290039c50909a5050505050505050505050a250505050505050565b82805482825590600052602060002090810192821561131b579160200282015b8281111561131b57825182546001600160a01b0319166001600160a01b039091161782556020909201916001909101906112e6565b50611327929150611372565b5090565b828054828255906000526020600020908101928215611366579160200282015b8281111561136657825182559160200191906001019061134b565b50611327929150611396565b610d7d91905b808211156113275780546001600160a01b0319168155600101611378565b610d7d91905b80821115611327576000815560010161139c56fea2646970667358221220cccc4b7a895328ec5ef6515f3b768e815f75b66c8f757b01148c58575f6034c664736f6c634300060a0033696e76616c6964206e756d626572206f6620726571756972656420636f6e6669726d6174696f6e73",
  "linkReferences": {},
  "deployedLinkReferences": {}
}